S00A000070732E7372656337
S11300000C9468000C9490000C9490000C94900054
S11300100C9490000C9490000C9490000C9490001C
S11300200C9490000C9490000C9490000C9490000C
S11300300C9490000C9490000C9490000C949000FC
S11300400C9425130C9490000C94380F0C946A0FA4
S11300500C9490000C9490000C9490000C949000DC
S11300600C9490000C94900078077B077E0781071E
S1130070840787078A078D07000000080002010033
S1130080000304070000000000000000010204084F
S113009010204080010204081020010204081020EE
S11300A0040404040404040402020202020203031A
S11300B00303030300000000250028002B000000B8
S11300C00000240027002A000F09A20B9A0F5109EF
S11300D011241FBECFEFD8E0DEBFCDBF12E0A0E0F9
S11300E0B1E0E6E2F8E302C005900D92AA33B1074D
S11300F0D9F723E0AAE3B2E001C01D92AA39B207FE
S1130100E1F710E0C7E6D0E004C02197FE010E94A9
S1130110BC19C436D107C9F70E9480110C94061C7F
S11301200C940000EF92FF920F931F93CF93DF93F1
S11301308B01040F151FEB017C01E61AF70AC701B6
S11301408C0F9D1FC017D10721F00E94B91B899302
S1130150F6CFDF91CF911F910F91FF90EF9008950B
S1130160EF92FF920F931F93CF93DF938B01040FB2
S1130170151FEB017C01E61AF70AC7018C0F9D1FBE
S1130180C017D10721F069910E94C11BF6CFDF91FE
S1130190CF911F910F91FF90EF900895682F8FEFEB
S11301A090E00C94C11B20E042E060E187E892E01B
S11301B00E948C1087E892E00C946A1048E051E0A9
S11301C060E087E892E00E94511140E151E061E073
S11301D087E892E00E94511148E151E062E087E82B
S11301E092E00C945111CF9387E892E00E946A1038
S11301F040E061E087E892E00E9471108091530230
S113020090915402C6E0C89FB001C99F700D11249B
S1130210695A7D4F87E892E00E94CE1141E061E087
S113022087E892E00E9471108091530290915402E9
S11302300196C89FB001C99F700D1124695A7D4F62
S113024087E892E00E94CE1180915302909154026B
S11302500097A9F02091060130910701181619069C
S1130260B4F4821793079CF440E06FE087E892E0CF
S11302700E94711061E087E892E00E94791141E0E8
S11302806FE087E892E00E94711062E00AC0821772
S1130290930761F440E06FE087E892E00E947110F8
S11302A061E087E892E0CF910C947911CF910895A1
S11302B040E060E087E892E00E94711061E172E042
S11302C087E892E00E94DC1141E060E087E892E078
S11302D00E94711061E172E087E892E00E94DC11F3
S11302E08091530280FD22C08091510280FD0BC099
S11302F040E060E087E892E00E94711060E087E8E7
S113030092E00E9479118091510280FF0BC041E07C
S113031060E087E892E00E94711060E087E892E074
S11303200E9479118091530280FF1EC08091510276
S113033080FD0BC041E060E087E892E00E9471100C
S113034060E087E892E00E9479118091510280FF79
S11303500BC040E060E087E892E00E94711060E02A
S113036087E892E00C94791108959C012D5B32404A
S11303702539310588F028533F4F2539310570F070
S11303802A563F4F2336310558F087599109833651
S1130390910540F484E0089581E0089582E0089591
S11303A083E0089580E0089547E150E06AE372E055
S11303B080E090E00E94920080E00E94CE0087E8F6
S11303C092E00E946A1040E060E087E892E00E94B8
S11303D0711062E271E087E892E00E94DC1140E073
S11303E065E087E892E00E94711040913A025091D2
S11303F03B0260913C0270913D0222E030E087E8CC
S113040092E00E94231341E060E087E892E00E94BA
S1130410711068E271E087E892E00E94DC1180E0EC
S11304200E94221490935602809355028235934081
S11304306CF46CE271E080E090E00E94A01380E034
S11304400E94221490935602809355028091550283
S1130450909156020E94B501823071F128F58130E5
S1130460F1F647E150E06AE372E080E090E00E9438
S1130470B00087E892E00E946A1040E065E087E8F7
S113048092E00E94711069E371E087E892E00E94B3
S1130490DC1181E00E94CE000E94260A6CED75E01A
S11304A080E090E00C94A0138330A9F0843009F02C
S11304B0B6CF81E00C94CE0020E030E040E85FE36A
S11304C060913A0270913B0280913C0290913D020E
S11304D00E94FE0B0EC020E030E040E85FE3609134
S11304E03A0270913B0280913C0290913D020E943D
S11304F0FD0B60933A0270933B0280933C0290930D
S11305003D0240E065E087E892E00E94711040916E
S11305103A0250913B0260913C0270913D0222E00C
S113052030E087E892E00E94231379CF47E150E05E
S11305306AE372E080E090E00E94920080E00E9412
S1130540CE0087E892E00E946A1040E060E087E80D
S113055092E00E94711061E471E087E892E00E94E9
S1130560DC1140E065E087E892E00E947110409160
S11305703E0250913F02609140027091410222E09C
S113058030E087E892E00E94231341E060E087E8CE
S113059092E00E94711068E271E087E892E00E94A4
S11305A0DC1180E00E94221490935602809355023D
S11305B0823593406CF46CE271E080E090E00E943C
S11305C0A01380E00E942214909356028093550257
S11305D080915502909156020E94B501823071F1CA
S11305E028F58130F1F647E150E06AE372E080E0FB
S11305F090E00E94B00087E892E00E946A1040E018
S113060065E087E892E00E94711069E371E087E891
S113061092E00E94DC1181E00E94CE000E94260A32
S11306206CED75E080E090E00C94A0138330A9F0A9
S1130630843009F0B6CF81E00C94CE0020E030E0A5
S113064040E85FE360913E0270913F028091400276
S1130650909141020E94FE0B0EC020E030E040E881
S11306605FE360913E0270913F028091400290915D
S113067041020E94FD0B60933E0270933F028093FF
S113068040029093410240E065E087E892E00E94D6
S1130690711040913E0250913F026091400270916E
S11306A0410222E030E087E892E00E94231379CFF0
S11306B047E150E06AE372E080E090E00E9492003B
S11306C080E00E94CE0087E892E00E946A1040E039
S11306D060E087E892E00E94711067E471E087E8C7
S11306E092E00E94DC1140E065E087E892E00E941D
S11306F07110409142025091430260914402709102
S1130700450222E030E087E892E00E94231341E0B2
S113071060E087E892E00E94711068E271E087E887
S113072092E00E94DC1180E00E9422149093560211
S113073080935502823593406CF46CE271E080E062
S113074090E00E94A01380E00E942214909356022D
S11307508093550280915502909156020E94B501F2
S1130760823071F128F58130F1F647E150E06AE317
S113077072E080E090E00E94B00087E892E00E947E
S11307806A1040E065E087E892E00E94711081E021
S11307900E94CE000E94260A69E371E087E892E095
S11307A00E94DC116CED75E080E090E00C94A013E5
S11307B08330A9F0843009F0B6CF81E00C94CE00E8
S11307C020E030E040E85FE3609142027091430230
S11307D080914402909145020E94FE0B0EC020E0DD
S11307E030E040E85FE360914202709143028091FF
S11307F04402909145020E94FD0B60934202709363
S11308004302809344029093450240E065E087E808
S113081092E00E9471104091420250914302609113
S113082044027091450222E030E087E892E00E94A1
S1130830231379CF47E150E06AE372E080E090E06F
S11308400E94920080E00E94CE0087E892E00E941D
S11308506A1040E060E087E892E00E9471106DE465
S113086071E087E892E00E94DC1140E067E087E8ED
S113087092E00E9471104AE050E06091460287E8DD
S113088092E00E943B1241E060E087E892E00E941F
S1130890711068E271E087E892E00E94DC1180E068
S11308A00E942214909356028093550282359340FD
S11308B06CF46CE271E080E090E00E94A01380E0B0
S11308C00E942214909356028093550280915502FF
S11308D0909156020E94B501823071F128F5813061
S11308E0F1F647E150E06AE372E080E090E00E94B4
S11308F0B00087E892E00E946A1040E065E087E873
S113090092E00E94711081E00E94CE000E94260AAB
S113091069E371E087E892E00E94DC116CED75E018
S113092080E090E00C94A013833051F0843009F0FF
S1130930B6CF81E00C94CE00809146028F5F03C055
S11309408091460281508093460240E067E087E848
S113095092E00E9471104AE050E06091460287E8FC
S113096092E00E943B129BCF47E150E06AE372E0C1
S113097080E090E00E94920080E00E94CE0087E830
S113098092E00E946A1040E060E087E892E00E94F2
S1130990711065E571E087E892E00E94DC1140E0A7
S11309A067E087E892E00E94711060914B027091B9
S11309B04C024AE050E087E892E00E94421241E093
S11309C060E087E892E00E94711068E271E087E8D5
S11309D092E00E94DC1180E00E942214909356025F
S11309E080935502823593406CF46CE271E080E0B0
S11309F090E00E94A01380E00E942214909356027B
S1130A008093550280915502909156020E94B5013F
S1130A10823061F118F58130F1F647E150E06AE384
S1130A2072E080E090E00E94B00087E892E00E94CB
S1130A306A1040E065E087E892E00E94711069E383
S1130A4071E087E892E00E94DC1181E00E94CE0010
S1130A506CED75E080E090E00C94A013833061F0BD
S1130A60843009F0B8CF81E00C94CE0080914B0221
S1130A7090914C02019605C080914B0290914C02DA
S1130A80019790934C0280934B0240E067E087E823
S1130A9092E00E94711060914B0270914C024AE006
S1130AA050E087E892E00E94421295CF47E150E07F
S1130AB06AE372E080E090E00E94920080E00E948D
S1130AC0CE0087E892E00E946A1040E060E087E888
S1130AD092E00E9471106DE571E087E892E00E9457
S1130AE0DC1140E067E087E892E00E9471106091B9
S1130AF04D0270914E024AE050E087E892E00E9475
S1130B00421241E060E087E892E00E94711068E2DE
S1130B1071E087E892E00E94DC1180E00E942214D8
S1130B209093560280935502823593406CF46CE2A4
S1130B3071E080E090E00E94A01380E00E94221403
S1130B4090935602809355028091550290915602DB
S1130B500E94B501823061F118F58130F1F647E168
S1130B6050E06AE372E080E090E00E94B00087E821
S1130B7092E00E946A1040E065E087E892E00E94FB
S1130B80711081E00E94CE0069E371E087E892E091
S1130B900E94DC116CED75E080E090E00C94A013F1
S1130BA0833061F0843009F0B8CF81E00C94CE003A
S1130BB080914D0290914E02019605C080914D02A4
S1130BC090914E02019790934E0280934D0240E023
S1130BD067E087E892E00E94711060914D02709185
S1130BE04E024AE050E087E892E00E94421295CF1C
S1130BF047E150E06AE372E080E090E00E949200F6
S1130C0080E00E94CE0087E892E00E946A1040E0F3
S1130C1060E087E892E00E94711065E671E087E881
S1130C2092E00E94DC1140E067E087E892E00E94D5
S1130C30711060914F02709150024AE050E087E8D1
S1130C4092E00E94421241E060E087E892E00E9454
S1130C50711068E271E087E892E00E94DC1180E0A4
S1130C600E94221490935602809355028235934039
S1130C706CF46CE271E080E090E00E94A01380E0EC
S1130C800E9422149093560280935502809155023B
S1130C90909156020E94B501823061F118F58130BD
S1130CA0F1F647E150E06AE372E080E090E00E94F0
S1130CB0B00087E892E00E946A1040E065E087E8AF
S1130CC092E00E94711081E00E94CE0069E371E01D
S1130CD087E892E00E94DC116CED75E080E090E022
S1130CE00C94A013833061F0843009F0B8CF81E014
S1130CF00C94CE0080914F0290915002019605C051
S1130D0080914F02909150020197909350028093EA
S1130D104F0240E067E087E892E00E947110609122
S1130D204F02709150024AE050E087E892E00E943E
S1130D30421295CF87E892E00E946A1040E060E09A
S1130D4087E892E00E9471106DE671E087E892E016
S1130D500E94DC1141E060E087E892E00E9471109B
S1130D606EE771E087E892E00E94DC1180E00E9467
S1130D7022149093560280935502823593406CF46A
S1130D806CE271E080E090E00E94A01380E00E9499
S1130D9022149093560280935502809155029091AB
S1130DA056020E94B501813079F08430F9F687E863
S1130DB092E00E946A1040E065E087E892E00E94B9
S1130DC0711068E971E048C080E090E0A0EAB1E405
S1130DD08093420290934302A0934402B09345024D
S1130DE080933E0290933F02A0934002B09341024D
S1130DF080933A0290933B02A0933C02B0933D024D
S1130E008093470290934802A0934902B0934A0208
S1130E1084E190E090934C0280934B0290934E02B5
S1130E2080934D029093500280934F028093460228
S1130E3047E150E06AE372E080E090E00E94B00095
S1130E4087E892E00E946A1040E065E087E892E05B
S1130E500E9471106FE871E087E892E00E94DC1153
S1130E606CED75E080E090E00C94A0130F931F9359
S1130E70CF93DF938C01EB018EE00E9422149093B8
S1130E80560280935502823593406CF46CE271E013
S1130E9080E090E00E94A01380E00E9422149093CE
S1130EA056028093550280915502909156020E94F9
S1130EB0B5018230A9F118F4813071F0DDCF8330AF
S1130EC009F47FC08430C1F6F80110821882DF91E2
S1130ED0CF911F910F910895E0915102F091520228
S1130EE0E830F10508F0B5C0EC5CFF4F0C94BC1978
S1130EF00E94D401AEC00E949602ABC00E94580367
S1130F00A8C00E941A04A5C00E94B404A2C00E94F2
S1130F1056059FC00E94F8059CC00E949A0699C07D
S1130F2020915302309154022115310591F480919E
S1130F3051029091520201978830910514F087E094
S1130F4090E097FF02C080E090E09093520280937B
S1130F505102809151029091520220FD15C080FDF2
S1130F6013C02150310937FD09C040910601509149
S1130F7007012417350724F4A90102C040E050E01A
S1130F8050935402409353022091530230915402DF
S1130F9020FF15C080FF13C02150310937FD09C05F
S1130FA040910601509107012417350724F4A90143
S1130FB002C040E050E05093540240935302019722
S1130FC03BC0209153023091540280915102909180
S1130FD0520220FD15C080FF13C02F5F3F4F37FD25
S1130FE009C040910601509107012417350724F4E4
S1130FF0A90102C040E050E05093540240935302D0
S1131000209153023091540220FF15C080FD13C07B
S11310102F5F3F4F37FD09C04091060150910701F2
S11310202417350724F4A90102C040E050E050938E
S113103054024093530201968830910514F087E0DE
S113104090E097FF02C080E090E09093520280937A
S113105051020E94F300DF91CF911F910F910C94E4
S113106058018EE00E9422149093560280935502F8
S1131070823593406CF46CE271E080E090E00E9471
S1131080A01380E00E94221490935602809355028C
S113109080915502909156020C94B5010F931F93C1
S11310A0CF93DF938C01EB018881813059F447E1C0
S11310B050E06AE372E080E090E00E9492000E94B7
S11310C09D0918820E943108F801808387E892E024
S11310D00E946A1040E060E087E892E00E9471108C
S11310E060EA71E087E892E00E94DC1140E063E08E
S11310F087E892E00E9471104AE050E06091460255
S113110087E892E0DF91CF911F910F910C943B12ED
S1131110CF92DF92EF92FF926B017C0140E067E097
S113112087E892E00E94711064EA71E087E892E037
S11311300E94DC1122E030E0B701A60187E892E0CA
S1131140FF90EF90DF90CF900C9423138FEF90E0FB
S11311500E94B91B811125C087E892E00E946A10A1
S113116040E060E087E892E00E94711068EA71E074
S113117087E892E00E94DC1141E060E087E892E0B9
S11311800E94711067EB71E087E892E00E94DC1125
S113119068EE73E080E090E00E94A01381E00C947C
S11311A0CE00089527E1EAE3F2E0DC0101900D921C
S11311B02A95E1F70895CF93DF93EC0187E892E055
S11311C0FC01228133813B832A8327E232E0398385
S11311D0288324812C8325812D8326812E8328E056
S11311E0EEE8F2E0DE01179601900D922A95E1F700
S11311F0FC0127852F872089288B2189298B228927
S11312002A8B23892B8B84899589A689B7898C8B12
S11312109D8BAE8BBF8BCE01DF91CF910895CF9282
S1131220EF920F9382E0C82E93E0E92E04E025E0CC
S11312304BE06CE087E892E00E9431116FEB71E0C3
S113124087E592E00E94A01562EC71E08DE592E0E2
S11312500E94A01565EC71E083E692E00E94A0155F
S113126068EC71E089E692E00E94A01564ED71E0FB
S11312708FE692E00E94A0156AED71E085E792E0A6
S11312800E94A01560EE71E08BE792E00E94A01529
S113129066EE71E081E892E00F91EF90CF900C94AC
S11312A0A015CF93DF93C7E8D2E02697CE010E9422
S11312B0321582E0C735D807C1F7DF91CF91089581
S11312C0CF92DF92EF92FF92CF93DF93C4EFD1E0FE
S11312D0C12CD12C760181E00E942214BC01990F0B
S11312E0880B990B0E94140D20E030E040E85AE38B
S11312F00E94A00D20E030E44CE955E40E94A00DCA
S113130020E030E040E251E40E946A0C9B01AC0111
S1131310C701B6010E94FE0B6B017C012197D9F62F
S113132020E030E04AEF53E40E946A0CDF91CF9151
S1131330FF90EF90DF90CF9008958F929F92AF929D
S1131340BF92CF92DF92EF92FF920F931F93CF93AE
S1131350DF93CDB7DEB7C554D1090FB6F894DEBF1D
S11313600FBECDBF0E9460096093E1027093E20258
S11313708093E3029093E4020E9460096093E60282
S11313807093E7028093E8029093E90200E010E092
S11313902FE733E440E050E0BA018FE992E00E9485
S11313A0DF1764E670E08FE992E00E94911761E034
S11313B070E08FE992E00E94A518CE0101960E9488
S11313C0D208C984DA84EB84FC84CE0148960E9456
S11313D0D2088C8C9D8CAE8CBF8CCE018F960E94D3
S11313E0D2084FA558A969A97AA9950184018FE962
S11313F092E00E94D716CB5BDF4F0FB6F894DEBFA6
S11314000FBECDBFDF91CF911F910F91FF90EF9051
S1131410DF90CF90BF90AF909F908F90089526E07B
S113142040E855E260E070E080EF92E00E94D30E65
S11314300E94D3000E94DE001092EF020E94A608D0
S11314400E949D0981E08093E50208958091EA025B
S11314509091EB02A091EC02B091ED028093DD0239
S11314609093DE02A093DF02B093E0028FE992E052
S11314700E94B5156091D9027091DA028091DB0265
S11314809091DC020E94DC0C89E00C943F141F93C1
S1131490CF93DF93CDB7DEB768970FB6F894DEBF6E
S11314A00FBECDBF8091D802813009F464C020F012
S11314B0823009F4A5C011C1CE0101960E94D20860
S11314C06D8570E080E090E00E94140D2091E602AA
S11314D03091E7024091E8025091E9020E94FD0B2D
S11314E020E030E040E752E40E946A0C9B01AC012A
S11314F06091E1027091E2028091E3029091E40232
S11315000E94FE0B6093E1027093E2028093E30277
S11315109093E402CE0101960E94DB0841E060E072
S1131520CE0101960E947110CE0101960E94DB0843
S113153064EF71E0CE0101960E94DC11CE010196A8
S11315400E94DB0841E06BE0CE0101960E9471101D
S113155010912001CE0101960E94DB084AE050E080
S1131560612FCE0101960E943B12809120018111CE
S1131570A9C081E042C0CE0101960E94D2086D85C7
S113158070E080E090E00E94120D6093E10270939D
S1131590E2028093E3029093E402CE0101960E945A
S11315A0DB0841E060E0CE0101960E947110CE019B
S11315B001960E94DB086FEF71E0CE0101960E9454
S11315C0DC11CE0101960E94DB0841E06BE0CE0104
S11315D001960E94711010912001CE0101960E9483
S11315E0DB084AE050E0612FCE0101960E943B12D5
S11315F080912001811166C082E08093D8025FC08F
S1131600CE0101960E94D2086D8570E080E090E0E2
S11316100E94140D2091E6023091E7024091E80205
S11316205091E9020E94FD0B20E030E040E752E4D3
S11316300E946A0C9B01AC016091E1027091E2028C
S11316408091E3029091E4020E94FD0B6093E10219
S11316507093E2028093E3029093E402CE01019638
S11316600E94DB0841E060E0CE0101960E94711007
S1131670CE0101960E94DB0869E072E0CE0101967A
S11316800E94DC11CE0101960E94DB0841E06BE070
S1131690CE0101960E94711010912001CE01019695
S11316A00E94DB084AE050E0612FCE0101960E94BF
S11316B03B1280912001811105C01092D8028CE365
S11316C0809320016CEB72E080E090E00E94A01314
S11316D08091200181508093200168960FB6F89480
S11316E0DEBF0FBECDBFDF91CF911F9108950E9441
S11316F060096093EA027093EB028093EC0290938A
S1131700ED020E9488088091EF0281110AC00E94B4
S1131710470A0E94260A65EE72E08EEE92E00E946D
S11317204E088091EE02813061F48093EF020E94B2
S1131730F3000E9458016EEE72E08FEE92E00C947A
S1131740360708956F927F928F929F92AF92BF92C5
S1131750CF92DF92EF92FF920F931F93CF93DF9379
S1131760CDB7DEB7C554D1090FB6F894DEBF0FBEAE
S1131770CDBFCE018F960E94D2089FA888AC79ACC9
S11317806AACCE0148960E94D208AC8CBD8CCE8C3B
S1131790DF8CCE0101960E94D208E980FA800B8189
S11317A01C811F921F926F927F928F929F9221EEC3
S11317B032E049ED52E06DED72E08FE992E00E9473
S11317C0F7180F900F900F900F900F900F90CB5B26
S11317D0DF4F0FB6F894DEBF0FBECDBFDF91CF91C0
S11317E01F910F91FF90EF90DF90CF90BF90AF903B
S11317F09F908F907F906F9008955058BB27AA2791
S11318000E94150C0C94660D0E94580D38F00E942D
S11318105F0D20F039F49F3F19F426F40C94550D14
S11318200EF4E095E7FB0C944F0DE92F0E94770D21
S113183058F3BA17620773078407950720F079F401
S1131840A6F50C94990D0EF4E0950B2EBA2FA02D4D
S11318500B01B90190010C01CA01A0011124FF2759
S1131860591B99F0593F50F4503E68F11A16F04054
S1131870A22F232F342F4427585FF3CF4695379553
S11318802795A795F0405395C9F77EF41F16BA0B18
S1131890620B730B840BBAF09150A1F0FF0FBB1FC6
S11318A0661F771F881FC2F70EC0BA0F621F731F0F
S11318B0841F48F4879577956795B795F7959E3F6C
S11318C008F0B0CF9395880F08F09927EE0F9795FD
S11318D0879508950E947E0C0C94660D0E945F0DFE
S11318E058F00E94580D40F029F45F3F29F00C9401
S11318F04F0D51110C949A0D0C94550D0E94770DB7
S113190068F39923B1F3552391F3951B550BBB272A
S1131910AA2762177307840738F09F5F5F4F220F6F
S1131920331F441FAA1FA9F335D00E2E3AF0E0E866
S113193032D091505040E695001CCAF72BD0FE2FB0
S113194029D0660F771F881FBB1F26173707480744
S1131950AB07B0E809F0BB0B802DBF01FF279358FC
S11319605F4F3AF09E3F510578F00C944F0D0C9464
S11319709A0D5F3FE4F3983ED4F386957795679587
S1131980B795F7959F5FC9F7880F911D9695879531
S113199097F90895E1E0660F771F881FBB1F621750
S11319A073078407BA0720F0621B730B840BBA0B0E
S11319B0EE1F88F7E09508950E94E30C6894B11136
S11319C00C949A0D08950E947F0D88F09F5798F00B
S11319D0B92F9927B751B0F0E1F0660F771F881F30
S11319E0991F1AF0BA95C9F714C0B13091F00E944A
S11319F0990DB1E008950C94990D672F782F8827DD
S1131A00B85F39F0B93FCCF3869577956795B39570
S1131A10D9F73EF490958095709561957F4F8F4FDF
S1131A209F4F0895E89409C097FB3EF490958095E4
S1131A30709561957F4F8F4F9F4F9923A9F0F92F90
S1131A4096E9BB279395F695879577956795B7950E
S1131A50F111F8CFFAF4BB0F11F460FF1BC06F5FF4
S1131A607F4F8F4F9F4F16C0882311F096E911C006
S1131A70772321F09EE8872F762F05C0662371F027
S1131A8096E8862F70E060E02AF09A95660F771F3B
S1131A90881FDAF7880F9695879597F9089597F92F
S1131AA09F6780E870E060E008959FEF80EC089500
S1131AB000240A9416161706180609060895002429
S1131AC00A9412161306140605060895092E0394A3
S1131AD0000C11F4882352F0BB0F40F4BF2B11F417
S1131AE060FF04C06F5F7F4F8F4F9F4F089557FD76
S1131AF09058440F551F59F05F3F71F04795880F78
S1131B0097FB991F61F09F3F79F08795089512160E
S1131B1013061406551FF2CF4695F1DF08C01616BA
S1131B2017061806991FF1CF86957105610508946B
S1131B300895E894BB2766277727CB0197F9089582
S1131B400E94B30D0C94660D0E94580D38F00E944B
S1131B505F0D20F0952311F00C944F0D0C94550D4E
S1131B6011240C949A0D0E94770D70F3959FC1F384
S1131B70950F50E0551F629FF001729FBB27F00D37
S1131B80B11D639FAA27F00DB11DAA1F649F66278C
S1131B90B00DA11D661F829F2227B00DA11D621FDB
S1131BA0739FB00DA11D621F839FA00D611D221F95
S1131BB0749F3327A00D611D231F849F600D211D79
S1131BC0822F762F6A2F11249F5750409AF0F1F0FC
S1131BD088234AF0EE0FFF1FBB1F661F771F881F65
S1131BE091505040A9F79E3F510580F00C944F0D41
S1131BF00C949A0D5F3FE4F3983ED4F38695779561
S1131C006795B795F795E7959F5FC1F7FE2B880F0A
S1131C10911D9695879597F90895FC01918D228DD4
S1131C20892F90E0805C9F4F821B91098F739927C5
S1131C300895FC01918D828D981731F0828DE80F03
S1131C40F11D858D90E008958FEF9FEF0895FC01BD
S1131C50918D828D981761F0828DDF01A80FB11DDF
S1131C605D968C91928D9F5F9F73928F90E0089503
S1131C708FEF9FEF089580E99FE0892B49F080E082
S1131C8090E0892B29F00E94900F81110C940000A0
S1131C900895FC01848DDF01A80FB11DA35ABF4F25
S1131CA02C91848D90E001968F739927848FA68957
S1131CB0B7892C93A089B1898C9180648C93938D7E
S1131CC0848D981306C00288F389E02D80818F7D6E
S1131CD080830895CF93DF93EC01888D8823C9F026
S1131CE0EA89FB89808185FD05C0A889B9898C9121
S1131CF086FD0FC00FB607FCF5CF808185FFF2CFBC
S1131D00A889B9898C9185FFEDCFCE010E94490E37
S1131D10E7CFDF91CF910895EF92FF920F931F9336
S1131D20CF93DF93EC0181E0888F9B8D8C8D98138A
S1131D3005C0E889F989808185FD24C0F62E0B8DC4
S1131D4010E00F5F1F4F0F731127E02E8C8DE812E8
S1131D500CC00FB607FCFACFE889F989808185FFAA
S1131D60F5CFCE010E94490EF1CF8B8DFE01E80F15
S1131D70F11DE35AFF4FF0820B8FEA89FB898081C2
S1131D80806207C0EE89FF896083E889F9898081D0
S1131D908064808381E090E0DF91CF911F910F9167
S1131DA0FF90EF900895CF92DF92EF92FF921F93EE
S1131DB0CF93DF93EC016A017B01122FE889F98943
S1131DC082E080834115514E61057105B1F060E0F8
S1131DD079E08DE390E0A70196010E949A19DA0157
S1131DE0C9010197A109B109B695A795979587955A
S1131DF0AC01411580E15807A8F0E889F9891082FF
S1131E0060E874E88EE190E0A70196010E949A19B7
S1131E10BA01A90141505109610971097695679583
S1131E2057954795EC85FD855083EE85FF85408366
S1131E30188EEC89FD891083EA89FB898081806191
S1131E408083EA89FB89808188608083EA89FB89B1
S1131E50808180688083EA89FB8980818F7D80838B
S1131E60DF91CF911F91FF90EF90DF90CF90089575
S1131E701F920F920FB60F9211242F938F939F935B
S1131E80EF93FF93E0910003F09101038081E091CF
S1131E900603F091070382FD12C09081809109032B
S1131EA08F5F8F7320910A03821751F0E091090329
S1131EB0F0E0E051FD4F958F8093090301C08081CC
S1131EC0FF91EF919F918F912F910F900FBE0F90E3
S1131ED01F9018951F920F920FB60F9211242F93F3
S1131EE03F934F935F936F937F938F939F93AF939E
S1131EF0BF93EF93FF9380EF92E00E94490EFF910E
S1131F00EF91BF91AF919F918F917F916F915F916D
S1131F104F913F912F910F900FBE0F901F901895E6
S1131F2080EF92E00E940D0E21E0892B09F420E05D
S1131F30822F0895E0EFF2E01382128288EE93E09C
S1131F40A0E0B0E084839583A683B78387E192E021
S1131F509183808385EC90E09587848784EC90E07E
S1131F609787868780EC90E0918B808B81EC90E062
S1131F70938B828B82EC90E0958B848B86EC90E043
S1131F80978B868B118E128E138E148E0895CF9399
S1131F90DF93EC0160E08E810E94031581E090E004
S1131FA00E94DC1361E08E810E94031581E090E0C1
S1131FB00E94DC1360E08E810E94031584E690E0A9
S1131FC0DF91CF910C94DC13CF92DF92EF92FF92CA
S1131FD00F931F93CF93DF936C017C0187E0E80E8E
S1131FE0F11CC0E0D0E0062F10E0B8010C2E02C0B6
S1131FF0759567950A94E2F76170F70181917F0105
S11320000E9403152196C430D10579F7C601DF91EA
S1132010CF911F910F91FF90EF90DF90CF900C9490
S1132020C70FCF92DF92EF92FF920F931F93CF933C
S1132030DF936C017C0187E0E80EF11CC0E0D0E086
S1132040062F10E0B8010C2E02C0759567950A940E
S1132050E2F76170F70181917F010E9403152196D7
S1132060C830D10579F7C601DF91CF911F910F9147
S1132070FF90EF90DF90CF900C94C70F1F93CF93F6
S1132080DF93EC01162F642F8C810E9403158D8140
S11320908F3F19F060E00E9403158F85612F84FF44
S11320A006C0CE01DF91CF911F910C94111070E006
S11320B084E0759567958A95E1F7CE010E94E40F57
S11320C0612FCE01DF91CF911F910C94E40F40E07A
S11320D00C943E1061E00E94671080ED97E00C9430
S11320E0DC13FC01443008F043E08389481710F006
S11320F04FEF480FDF01A40FB11D54969C91690F57
S11321006068CF010C946710FC016089262F24605D
S1132110208B6C600C946710EF92FF920F931F93C7
S1132120CF93DF93EC01423018F08F8588608F875E
S11321304B8B1C8A80E48D8B6E8B70E0605C7F4FD0
S11321406F8B222329F0413019F48F8584608F87A7
S113215061E08C810E94C7148D818F3F19F061E08A
S11321600E94C71461E08E810E94C7147E0187E03B
S1132170E80EF11C00E010E08F8584FD03C084E0CC
S113218090E002C088E090E0081719074CF461E081
S1132190F70181917F010E94C7140F5F1F4FECCF9D
S11321A080E593EC0E94DC1360E08C810E940315AF
S11321B060E08E810E9403158D818F3F19F060E0ED
S11321C00E9403156F8564FD1DC063E0CE010E946B
S11321D0E40F84E991E10E94DC1363E0CE010E94E4
S11321E0E40F84E991E10E94DC1363E0CE010E94D4
S11321F0E40F86E990E00E94DC1362E0CE010E94C5
S1132200E40F16C06062CE010E94671084E991E178
S11322100E94DC136F856062CE010E94671086E91C
S113222090E00E94DC136F856062CE010E9467100B
S11322306F856062CE010E94671084E0888BCE01B6
S11322400E948410CE010E946A1082E0898B66E0AD
S1132250CE01DF91CF911F910F91FF90EF900C94DD
S11322606710CF92EF920F93FC011382128287E2E0
S113227092E09183808364838FEF858346832783F1
S11322800087E186C286138614861586168617860D
S113229020E041E060E1CF010F91EF90CF900C94EA
S11322A08C10EF92FF920F931F93CF93DF938C01C7
S11322B07A01677088E0689FB00111246064C801E6
S11322C00E946710E701A8E0EA0EF11C6991D801A9
S11322D0ED91FC910190F081E02DC8010995CE1596
S11322E0DF05A1F7DF91CF911F910F91FF90EF9040
S11322F0089541E00E943E1081E090E00895089521
S11323000E94E7130E947F110E940F0ACBE3DEE0D4
S11323100E94770B2097E1F30E943B0EF9CFCF92F6
S1132320DF92EF92FF920F931F93CF93DF936C0191
S11323307A018B01C0E0D0E0CE15DF0581F0D80131
S11323406D918D01D601ED91FC910190F081E02D0C
S1132350C6010995892B11F02196EECF7E01C701A4
S1132360DF91CF911F910F91FF90EF90DF90CF906D
S113237008956115710579F0FB0101900020E9F7DA
S11323803197AF01461B570BDC01ED91FC910280A4
S1132390F381E02D099480E090E00895DB01149628
S11323A04D915C9115976D917C91DC01ED91FC91BF
S11323B00280F381E02D09940C94B911DC01ED91B4
S11323C0FC910190F081E02D09948F929F92AF923D
S11323D0BF92EF92FF920F931F93CF93DF93CDB7EA
S11323E0DEB7A1970FB6F894DEBF0FBECDBF7C0158
S11323F0FA01CB0119A2223008F42AE08E010F5D04
S11324001F4F822E912CA12CB12CBF01A501940148
S11324100E949A19F901CA01015011096A3010F495
S1132420605D01C0695CD8016C93232B242B252BA0
S113243061F7B801C7010E94B911A1960FB6F894CB
S1132440DEBF0FBECDBFDF91CF911F910F91FF90E3
S1132450EF90BF90AF909F908F9008952115310514
S113246041F4DC01ED91FC910190F081E02D642FA9
S113247009940C94E5119A01462F50E060E070E055
S11324800C942E129A01AB0160E070E00C942E12B1
S11324907F928F929F92AF92BF92CF92DF92EF92F0
S11324A0FF920F931F93CF93DF938C016A017B01FB
S11324B0722E9A01AB01C701B6010E9495198823B7
S11324C019F06EE272E027C046015701E894B7F8AC
S11324D02FEF3FEF4FE75FE7C501B4010E94951965
S11324E081110DC02FEF3FEF4FE75FE7C501B40146
S11324F00E94671918161CF462E372E00CC02FEFF7
S11325003FEF4FE75FE4C701B6010E949019181628
S113251094F466E372E0C801DF91CF911F910F91AB
S1132520FF90EF90DF90CF90BF90AF909F908F90EF
S11325307F900C94B9112FEF3FEF4FE75FECC70189
S1132540B6010E94671987FDE4CF20E030E0A901BD
S1132550C701B6010E94671987FF0AC06DE2C8016E
S11325600E94DE11EC01F7FAF094F7F8F09402C03F
S1132570C0E0D0E0B12C60E070E080E09FE37B1429
S113258041F020E030E040E251E40E946A0CB39450
S1132590F6CFA70196010E94FE0B6B017C010E94FD
S11325A0E30C4B015C012AE0AB01BC01C8010E94B1
S11325B0E511C80FD91F7720B9F1C501B4010E94F4
S11325C0120D9B01AC01C701B6010E94FD0B6B010A
S11325D07C016EE2C8010E94DE11C80FD91F20E001
S11325E030E040E251E4C701B6010E94A00D4B0166
S11325F05C010E94E30C6B017C014AE050E0C801DD
S11326000E944212C80FD91FB60180E090E00E94D8
S1132610120D9B01AC01C501B4010E94FD0B6B01BD
S11326207C017A947110DBCFCE01DF91CF911F91A1
S11326300F91FF90EF90DF90CF90BF90AF909F905D
S11326408F907F9008950C9448121F920F920FB6AA
S11326500F9211242F933F938F939F93AF93BF9324
S113266080918E0390918F03A0919003B091910378
S113267030918D0323E0230F2D3720F40196A11D03
S1132680B11D05C026E8230F0296A11DB11D20939C
S11326908D0380938E0390938F03A0939003B09344
S11326A091038091920390919303A0919403B0912C
S11326B095030196A11DB11D8093920390939303FA
S11326C0A0939403B0939503BF91AF919F918F9181
S11326D03F912F910F900FBE0F901F9018952FB719
S11326E0F89460918E0370918F0380919003909180
S11326F091032FBF08953FB7F8948091920390916E
S11327009303A0919403B091950326B5A89B05C0AB
S11327102F3F19F00196A11DB11D3FBFBA2FA92F5C
S1132720982F8827820F911DA11DB11DBC01CD01D9
S113273042E0660F771F881F991F4A95D1F70895C5
S11327408F929F92AF92BF92CF92DF92EF92FF92BD
S11327506B017C010E947B134B015C01C114D10409
S1132760E104F10401F10E9466190E947B13DC016B
S1132770CB0188199909AA09BB09883E9340A10590
S1132780B10560F321E0C21AD108E108F10888EE2E
S1132790880E83E0981EA11CB11CC114D104E1046D
S11327A0F10419F7DBCFFF90EF90DF90CF90BF904B
S11327B0AF909F908F9008958230910538F0880FE4
S11327C0991F880F991F05970197F1F70895789439
S11327D084B5826084BD84B5816084BD85B5826022
S11327E085BD85B5816085BDEEE6F0E080818160C0
S11327F08083E1E8F0E010828081826080838081C0
S113280081608083E0E8F0E0808181608083E1EB97
S1132810F0E0808184608083E0EBF0E0808181607F
S11328208083EAE7F0E08081846080838081826035
S1132830808380818160808380818068808310921E
S1132840C10008958E3008F08E502091210190E44B
S1132850299F900111248770822B80937C008091A2
S11328607A00806480937A0080917A0086FDFCCFA0
S1132870809178002091790090E0922B08951F9325
S1132880CF93DF93182FEB0161E00E94C7142097C8
S113289011F460E004C0CF3FD10539F461E0812F29
S11328A0DF91CF911F910C940315E12FF0E0E858CC
S11328B0FF4FE491E330F9F048F4E130B9F0E2304D
S11328C0A1F584B5806284BDC8BD34C0E730E9F0A9
S11328D0E83019F1E43049F58091800080628093FA
S11328E08000D0938B00C0938A0024C084B5806894
S11328F084BDC7BD1FC08091800080688093800024
S1132900D0938900C093880015C08091B00080687E
S11329108093B000C093B3000DC08091B00080627A
S11329208093B000C093B40005C0C038D1050CF04A
S1132930B5CFAFCFDF91CF911F910895833081F050
S113294028F4813099F08230A1F008958730A9F0FD
S11329508830B9F08430D1F4809180008F7D03C039
S1132960809180008F7780938000089584B58F775D
S113297002C084B58F7D84BD08958091B0008F77A7
S113298003C08091B0008F7D8093B0000895CF93F1
S1132990DF9390E0FC01E457FF4F2491FC01E056E3
S11329A0FF4F8491882361F190E0880F991FFC0107
S11329B0E254FF4FC591D491FC01EC54FF4FA59113
S11329C0B491611109C09FB7F8948881209582233E
S11329D08883EC912E230BC0623061F49FB7F89486
S11329E08881322F309583238883EC912E2B2C936E
S11329F09FBF06C08FB7F894E8812E2B28838FBF22
S1132A00DF91CF9108951F93CF93DF93282F30E068
S1132A10F901E858FF4F8491F901E457FF4FD4912D
S1132A20F901E056FF4FC491CC23C1F0162F811158
S1132A300E949E14EC2FF0E0EE0FFF1FEC54FF4FAA
S1132A40A591B4919FB7F894111104C08C91D095BD
S1132A50D82302C0EC91DE2BDC939FBFDF91CF9192
S1132A601F910895FC01808191810C945A1ACF938F
S1132A70DF93EC0188819981009711F00E945A1A22
S1132A80198218821D821C821B821A82DF91CF91C7
S1132A9008950F931F93CF93DF93EC018B016F5F26
S1132AA07F4F888199810E94E31A009731F09983BE
S1132AB088831B830A8381E001C080E0DF91CF918A
S1132AC01F910F910895CF93DF93EC018881998131
S1132AD0892B29F08A819B818617970760F4CE01A0
S1132AE00E944915882341F08C819D81892B19F41A
S1132AF0E881F981108281E0DF91CF910895EF920E
S1132B00FF920F931F93CF93DF93EC017B018A0114
S1132B10BA010E946315811104C0CE010E943715C9
S1132B2007C01D830C83B701888199810E94B21B61
S1132B30CE01DF91CF911F910F91FF90EF900895F7
S1132B40FC01118210821382128215821482611593
S1132B50710551F0FB0101900020E9F73197AF01B5
S1132B60461B570B0C947F1508952F923F924F925A
S1132B705F926F927F928F929F92AF92BF92CF9209
S1132B80DF92EF92FF920F931F93CF93DF93CDB712
S1132B90DEB72B970FB6F894DEBF0FBECDBFDC01B6
S1132BA0D896BC91B983B11102C01982E6C09B8743
S1132BB08A870E946F136A837B838C839D83EA8553
S1132BC0FB8580A191A1A2A1B3A14A815B816C8103
S1132BD07D81481B590B6A0B7B0B84A595A5A6A583
S1132BE0B7A5481759076A077B07F8F2028CF38DDB
S1132BF0E02D80809180A280B380AA85BB855E96FB
S1132C00ED91FC915F97A5019401608171818281AE
S1132C1093810E94FD0B2B013C01EA85FB852089F1
S1132C203189428953890E94A00DAA85BB85949657
S1132C302D913D914D915C9197970E94FE0B6B01F4
S1132C407C01EA85FB8564A375A386A397A324A8C6
S1132C5035A806A917A99101A8010E949019181670
S1132C601CF4C101D80118C0AA85BB85D0968D91EA
S1132C709D910D90BC91A02D8E839F83A887B987C9
S1132C809C01AD01C701B6010E94671987FF0AC004
S1132C908E819F81A885B985EA85FB8584A395A348
S1132CA0A6A3B7A3AA85BB851C962D913D914D91F2
S1132CB05C911F97C301B2010E94A00DEA85FB85B8
S1132CC024A135A146A157A10E94FE0B6B017C01F2
S1132CD0AA85BB8598962D913D914D915C919B97CA
S1132CE0C501B4010E94FD0BEA85FB852489358961
S1132CF0468957890E94A00D9B01AC01C701B6010A
S1132D000E94FD0B6B017C019B01AC01B101C80168
S1132D100E94671987FD17C0AA85BB85D0962C90A1
S1132D20D097D1963C90D197D2960C91D297D396C6
S1132D301C919101A801B601C7010E94671987FD82
S1132D4002C016018701AA85BB855C96ED91FC91B2
S1132D505D97C101D80180839183A283B383EA85FF
S1132D60FB8580A691A6A2A6B3A68A819B81AC818D
S1132D70BD8180A391A3A2A3B3A389812B960FB68F
S1132D80F894DEBF0FBECDBFDF91CF911F910F919D
S1132D90FF90EF90DF90CF90BF90AF909F908F9077
S1132DA07F906F905F904F903F902F9008954F9237
S1132DB05F926F927F928F929F92AF92BF92CF92C7
S1132DC0DF92EF92FF920F931F93CF93DF9300D084
S1132DD000D000D0CDB7DEB79E838D832A013B019E
S1132DE04801590120E030E0A901C301B2010E9469
S1132DF0671987FD7FC020E030E0A901C501B40157
S1132E000E94671987FD76C020E030E0A901C70160
S1132E10B6010E94671987FD6DC0ED81FE81408275
S1132E2051826282738284829582A682B782C0862E
S1132E30D186E286F38664A575A586A597A50E942A
S1132E40120D20E030E04AE754E40E946A0C6983E2
S1132E507A838B839C83ED81FE81448655866686C6
S1132E6077869B01AC01C501B4010E94A00D4B0102
S1132E705C01ED81FE81608B718B828B938B298148
S1132E803A814B815C81C701B6010E946A0C6B01D7
S1132E907C01ED81FE81648B758B868B978B808D95
S1132EA0918D019739F5A301920160E070E0CB01A7
S1132EB00E94FD0BED81FE81648775878687978765
S1132EC0A501940160E070E0CB010E94FD0BED814F
S1132ED0FE81608B718B828B938BA701960160E0DE
S1132EE070E0CB010E94FD0BED81FE81648B758B3C
S1132EF0868B978B26960FB6F894DEBF0FBECDBF98
S1132F00DF91CF911F910F91FF90EF90DF90CF90C1
S1132F10BF90AF909F908F907F906F905F904F90F5
S1132F2008958F929F92AF92BF92CF92DF92EF92C9
S1132F30FF92CF93DF9316161706B4F56B01EC01DD
S1132F400D2C000CEE08FF08C701B6010E94140DF9
S1132F504B015C016CA57DA58EA59FA50E94120D59
S1132F609B01AC01C501B4010E946A0C4B015C01D8
S1132F709B01AC01688979898A899B890E94A00D8B
S1132F80688B798B8A8B9B8BA50194016C897D89D5
S1132F908E899F890E946A0C6C8B7D8B8E8B9F8B94
S1132FA0CCA6DDA6EEA6FFA6DF91CF91FF90EF9011
S1132FB0DF90CF90BF90AF909F908F9008952F9205
S1132FC03F924F925F926F927F928F929F92AF92B5
S1132FD0BF92CF92DF92EF92FF920F931F93CF9302
S1132FE0DF93EC016A017B0148015901A9019801B1
S1132FF0C701B6010E94901987FF4EC0C8AAD9AA7A
S1133000EAAAFBAA8CAA9DAAAEAABFAA88AD882365
S113301009F442C02C8C3D8CF101408051806280C7
S11330207380A3019201C501B4010E94671987FF4F
S113303006C0F10180829182A282B3820DC0A301F5
S11330409201C701B6010E94901918162CF4F101DF
S1133050C082D182E282F3828CA09DA0AEA0BFA0E8
S1133060CCA8DDA8EEA8FFA8A7019601C501B4016C
S11330700E949019181664F0C8A8D9A8EAA8FBA859
S1133080A7019601C501B4010E94671987FF04C016
S1133090CCA2DDA2EEA2FFA2DF91CF911F910F91EE
S11330A0FF90EF90DF90CF90BF90AF909F908F9064
S11330B07F906F905F904F903F902F9008958F92E4
S11330C09F92AF92BF92CF92DF92EF92FF92CF93F3
S11330D0DF93EC01EC8DFD8DC080D180E280F38024
S11330E0CCA2DDA2EEA2FFA2EA8DFB8D80819181AC
S11330F0A281B38188A799A7AAA7BBA78CA89DA8DA
S1133100AEA8BFA8A5019401C701B6010E949019F9
S1133110181664F088A899A8AAA8BBA8A5019401C8
S1133120C701B6010E94671987FF04C08CA29DA243
S1133130AEA2BFA2DF91CF91FF90EF90DF90CF902E
S1133140BF90AF909F908F9008951F93CF93DF937C
S1133150EC0111E06130710509F010E098AD81E0F7
S11331608927181303C0CE010E945F1818AFDF919E
S1133170CF911F9108950F931F93CF93DF93EC0189
S11331808B0188AD882361F1888D998D8617970707
S113319039F12C853D854E855F8560E070E0CB017B
S11331A00E94FD0B6C877D878E879F8728893989CC
S11331B04A895B8960E070E0CB010E94FD0B688B5B
S11331C0798B8A8B9B8B2C893D894E895F8960E042
S11331D070E0CB010E94FD0B6C8B7D8B8E8B9F8BE3
S11331E0198F088FDF91CF911F910F9108954F92FE
S11331F05F926F927F928F929F92AF92BF92CF9283
S1133200DF92EF92FF920F931F93CF93DF9300D03F
S113321000D0CDB7DEB74C0127013801A982BA82AC
S1133220CB82DC82FC01558F448F738F628F378F82
S1133230268F10AE10AA11AA12AA13AA80E090E059
S1133240AFE7B3E484AB95ABA6ABB7AB84E690E051
S1133250A0E0B0E084A795A7A6A7B7A76B8D7C8D47
S1133260C4010E94BB18CF88D88CE98CFA8C0981E0
S11332701A812B813C81B301A201C4010E94D7169B
S11332800E946F13F40104A515A526A537A5DC013A
S1133290CB01801B910BA20BB30B80A391A3A2A320
S11332A0B3A30F900F900F900F90DF91CF911F91C8
S11332B00F91FF90EF90DF90CF90BF90AF909F90D1
S11332C08F907F906F905F904F90089508950E9423
S11332D06C1908F481E00895990F0008550FAA0BA2
S11332E0E0E8FEEF16161706E807F907C0F0121615
S11332F01306E407F50798F0621B730B840B950B18
S113330039F40A2661F0232B242B252B21F408956C
S11333100A2609F4A140A6958FEF811D811D089509
S11333200E946C1908F48FEF08950E946C19880BA1
S1133330990B0895A1E21A2EAA1BBB1BFD010DC017
S1133340AA1FBB1FEE1FFF1FA217B307E407F50751
S113335020F0A21BB30BE40BF50B661F771F881F2D
S1133360991F1A9469F760957095809590959B01C3
S1133370AC01BD01CF010895EE0FFF1F0590F4913C
S1133380E02D09940F931F93CF93DF93823091051F
S113339010F482E090E0E0919803F091990320E02A
S11333A030E0A0E0B0E0309719F140815181028112
S11333B0138148175907C8F08417950769F41097C3
S11333C031F012960C93129713961C9327C0009316
S11333D098031093990322C02115310519F042175F
S11333E0530718F49A01BD01EF01DF01F801DBCFA7
S11333F021153105F9F0281B390B2430310580F4EF
S11334008A819B816115710521F0FB01938382837D
S113341004C09093990380939803FE01329644C0AC
S1133420FE01E20FF31F81939193225031093983F6
S113343028833AC02091960330919703232B41F4BB
S11334402091020130910301309397032093960356
S113345020910001309101012115310541F42DB76E
S11334603EB74091040150910501241B350BE091B6
S11334709603F0919703E217F307A0F42E1B3F0B7A
S11334802817390778F0AC014E5F5F4F24173507D2
S113349048F04E0F5F1F5093970340939603819318
S11334A0919302C0E0E0F0E0CF01DF91CF911F9152
S11334B00F910895CF93DF93009709F481C0FC0125
S11334C0329713821282A0919803B09199031097B6
S11334D081F420813181820F931F209196033091D2
S11334E097032817390751F5F0939703E093960350
S11334F067C0ED0120E030E0CE17DF0740F44A81D9
S11335005B819E0141155105F1F0EA01F5CFD383AA
S1133510C28340815181840F951FC817D90759F47C
S113352088819981840F951F0296918380838A8173
S11335309B81938382832115310529F4F0939903A8
S1133540E09398033DC0E901FB83EA8349915991D3
S1133550C40FD51FEC17FD0761F480819181840F9E
S1133560951F0296E90199838883828193819B83C5
S11335708A83E0E0F0E012968D919C911397009776
S113358019F0FD01DC01F7CF8D919C9111979D01FC
S11335902E5F3F4F820F931F209196033091970324
S11335A02817390769F4309729F410929903109277
S11335B0980302C013821282B0939703A0939603D8
S11335C0DF91CF910895A0E0B0E0E9EEFAE10C9428
S11335D0D31BEC01009721F4CB010E94C219B4C0A3
S11335E0FC01E60FF71F9C0122503109E217F30793
S11335F008F4A8C0D9010D911C911197061717075B
S1133600B0F00530110508F49BC0C8010497861773
S1133610970708F495C002501109061B170B019374
S113362011936D937C93CF010E945A1A89C05B0158
S1133630A01AB10A4C01800E911EA0919803B0917A
S11336409903612C712CE12CF12C109709F446C0DC
S11336508D919C911197A815B905B1F56C0142E0C3
S1133660C40ED11CCA14DB0478F14C018A189B08DF
S1133670640142E0C40ED11C1296BC9012971396BA
S1133680AC91B5E0CB16D10440F0B282A383918211
S11336908082D9016D937C9309C00E5F1F4F800F08
S11336A0911FF90191838083EB2DFA2FE114F1042A
S11336B031F0D7011396FC93EE93129741C0F09327
S11336C09903E09398033CC06816790608F43C011A
S11336D07D0112960D90BC91A02DB7CF80919603D9
S11336E09091970388169906E1F466167706C8F454
S11336F08091000190910101009741F48DB79EB72C
S11337004091040150910501841B950BE817F907BA
S1133710C8F4F0939703E0939603F90171836083EF
S11337200FC0CB010E94C2197C01009759F0A80177
S1133730BE010E94A91BCE010E945A1AC70104C0EF
S1133740CE0102C080E090E0CDB7DEB7EEE00C948D
S1133750EF1BFB01DC0102C001900D92415050406F
S1133760D8F70895FB01DC0101900D920020E1F7E8
S11337700895F999FECF92BD81BDF89A992780B535
S11337800895262FF999FECF1FBA92BD81BD20BDA1
S11337900FB6F894FA9AF99A0FBE019608952F92EB
S11337A03F924F925F926F927F928F929F92AF92CD
S11337B0BF92CF92DF92EF92FF920F931F93CF931A
S11337C0DF93CDB7DEB7CA1BDB0B0FB6F894DEBFB1
S11337D00FBECDBF09942A88398848885F846E84D7
S11337E07D848C849B84AA84B984C884DF80EE8021
S11337F0FD800C811B81AA81B981CE0FD11D0FB62A
S1133800F894DEBF0FBECDBFED01089510E0C7E60A
S1133810D0E004C0FE010E94BC192196C836D1072D
S1093820C9F7F894FFCF84
S113382600009A03200006000804020102040800AE
S1133836040E1504040404040404040404150E0408
S11338463C014B70203D20004241434B20202D205B
S1133856202B2020534156450053414C56415421B8
S1133866004B69203D20004B64203D2000547365C5
S113387674203D200054696E63203D2000546D651C
S11338866D203D200054726163203D200052657313
S113389665746174692076616C6F72693F004E5578
S11338A620202020202020202020202044410052B7
S11338B64553455441542100414E554C4154210031
S11338C654733A0054633A0053616C76617265200E
S11338D6616E7465722E0065737561746121004BA7
S11338E670004B69004B640054656D702053657419
S11338F6617461005420696E630054204D656D0047
S1133906542052616300466163746F727920526574
S113391673657400496E63616C7A69726520004D43
S1133926656E74696E6572650052616369726520BD
S1133936202000000000008C0E8F110D0E270E199A
S11339460E6A0E0000000079118F110D0A006E61D7
S10D39566E00696E66006F7666006D
S9030000FC
